:100000000C942A000C943F000C943F000C943F0089
:100010000C943F000C943F000C943F000C943F0064
:100020000C943F000C943F000C943F000C943F0054
:100030000C943F000C943F000C943F000C943F0044
:100040000C943F000C943F000C943F000C943F0034
:100050000C943F0011241FBECFE5D8E0DEBFCDBF1A
:1000600010E0A0E6B0E0E2E7FBE002C005900D92F0
:10007000AA38B107D9F70E9471000C94B7050C9407
:10008000000085BB84E082BB89EF90E00197F1F727
:1000900000C0000012BA83ED90E30197F1F700C0B1
:1000A0000000089540E055E061E0242F30E0FC01BD
:1000B00001900020E9F73197E81BF90B2E173F0755
:1000C00008F00895280F391FF901208125BB52BB84
:1000D000E9EFF0E03197F1F700C0000062BB4F5F3D
:1000E000E4CFCF93DF93CDB7DEB7A8970FB6F894E0
:1000F000DEBF0FBECDBF8FE0E0E6F0E0DE0111967F
:1001000001900D928A95E1F7FE01709685E0DF017E
:100110001D928A95E9F78FEF84BB87E081BB10BE03
:1001200088E30E94410089EF90E00197F1F700C059
:10013000000081E00E944100A9EFB0E01197F1F7C3
:1001400000C000008EE00E94410089EF90E001971E
:10015000F1F700C0000080E80E944100A9EFB0E084
:100160001197F1F700C0000080EB87BB88B388BB14
:1001700083E58DB91EB81ABA87E886B980E487B9D5
:1001800080B7887080BF88B118B87894B12CA12C42
:100190007E01B5E1EB0EF11C90E4892E2FED522E7D
:1001A00034E7632E30E0732E459B4CC087B8369AF7
:1001B000349BFECF349A64B175B190E080E00E9428
:1001C000DD0126EF38E24CE950E40E946B0220E0AA
:1001D00030E040E251E40E9435010E94A701962ED2
:1001E000472E062F172F6FB9779BFECFC016D1066B
:1001F000F1F081E00E9441001F925F924F929F9226
:100200007F926F92FF92EF920E94DF02CE010196E1
:100210000E94520080EC0E944100C7010E945200DF
:100220000FB6F894DEBF0FBECDBFB12CA12C9FE35B
:10023000ADE0B3E09150A040B040E1F700C0000055
:100240006801B2CF8601A114B10489F781E00E9450
:1002500041006AE770E0C7010E94D802C7010E940E
:100260005200AA24A394B12CE2CF0E9449010C941D
:1002700031020E942A0258F00E94230240F029F421
:100280005F3F29F00C941A0251110C9465020C94F2
:1002900020020E94420268F39923B1F3552391F39F
:1002A000951B550BBB27AA2762177307840738F0E5
:1002B0009F5F5F4F220F331F441FAA1FA9F335D042
:1002C0000E2E3AF0E0E832D091505040E695001CF6
:1002D000CAF72BD0FE2F29D0660F771F881FBB1FB0
:1002E000261737074807AB07B0E809F0BB0B802D8E
:1002F000BF01FF2793585F4F3AF09E3F510578F0BA
:100300000C941A020C9465025F3FE4F3983ED4F318
:10031000869577956795B795F7959F5FC9F7880F8D
:10032000911D9695879597F90895E1E0660F771FDF
:10033000881FBB1F621773078407BA0720F0621B70
:10034000730B840BBA0BEE1F88F7E09508950E949B
:10035000AE016894B1110C94650208950E944A029E
:1003600088F09F5798F0B92F9927B751B0F0E1F076
:10037000660F771F881F991F1AF0BA95C9F714C026
:10038000B13091F00E946402B1E008950C946402CF
:10039000672F782F8827B85F39F0B93FCCF386955F
:1003A00077956795B395D9F73EF4909580957095BC
:1003B00061957F4F8F4F9F4F0895E89409C097FB39
:1003C0003EF490958095709561957F4F8F4F9F4F2C
:1003D0009923A9F0F92F96E9BB279395F695879570
:1003E00077956795B795F111F8CFFAF4BB0F11F433
:1003F00060FF1BC06F5F7F4F8F4F9F4F16C08823DA
:1004000011F096E911C0772321F09EE8872F762F0F
:1004100005C0662371F096E8862F70E060E02AF050
:100420009A95660F771F881FDAF7880F969587953C
:1004300097F9089597F99F6780E870E060E0089564
:100440009FEF80EC089500240A94161617061806EC
:100450000906089500240A941216130614060506C8
:100460000895092E0394000C11F4882352F0BB0F59
:1004700040F4BF2B11F460FF04C06F5F7F4F8F4FBC
:100480009F4F089557FD9058440F551F59F05F3FF7
:1004900071F04795880F97FB991F61F09F3F79F0A6
:1004A00087950895121613061406551FF2CF469528
:1004B000F1DF08C0161617061806991FF1CF8695AA
:1004C0007105610508940895E894BB27662777278E
:1004D000CB0197F908950E947E020C9431020E948C
:1004E000230238F00E942A0220F0952311F00C9488
:1004F0001A020C94200211240C9465020E944202FC
:1005000070F3959FC1F3950F50E0551F629FF00166
:10051000729FBB27F00DB11D639FAA27F00DB11D7F
:10052000AA1F649F6627B00DA11D661F829F222708
:10053000B00DA11D621F739FB00DA11D621F839F8F
:10054000A00D611D221F749F3327A00D611D231F65
:10055000849F600D211D822F762F6A2F11249F57B3
:1005600050409AF0F1F088234AF0EE0FFF1FBB1FB6
:10057000661F771F881F91505040A9F79E3F510575
:1005800080F00C941A020C9465025F3FE4F3983EED
:10059000D4F3869577956795B795F795E7959F5F1F
:1005A000C1F7FE2B880F911D9695879597F90895B1
:1005B000FB01DC0101900D920020E1F70895AEE00F
:1005C000B0E0E5EEF2E00C948E050D891E8986E020
:1005D0008C831A8309838FEF9FE79E838D83AE01FF
:1005E000475E5F4F6F89788DCE0101960E940203AE
:1005F0002F813885020F131FF80110822E96E4E038
:100600000C94AA05ABE0B0E0E8E0F3E00C948005C0
:100610007C013B018A01FC0117821682838181FFE4
:10062000C8C1CE0101965C01F7019381F30193FDEE
:10063000859193FF81913F01882309F453C185324D
:1006400039F493FD859193FF81913F01853229F41F
:10065000B70190E00E94F204E7CF912C212C312CBD
:10066000FFE1F31538F08B3211F190F4803209F18B
:10067000833229F137FC3CC020ED280F2A3050F599
:1006800036FE20C08AE0989E200D1124922E06C0CE
:100690008D3291F0803371F7689430F8F30193FD57
:1006A000859193FF81913F018111DACF21C0689438
:1006B00031F8689432F8F2CF689433F8EFCF689449
:1006C00034F8ECCFEAE02E9E200D1124222E6894FF
:1006D00035F8E4CF8E3229F436FC04C1689436F83C
:1006E000DDCF8C3619F4689437F8D8CF8836B1F25C
:1006F000982F9F7D95549330E0F08336A1F1833796
:10070000C1F1833509F063C02801F2E04F0E511C9E
:10071000F801C080D180692D70E036FC02C06FEF17
:100720007FEFC6010E94DC044C01689437F8820117
:100730000AC00C5F1F4FFFE3F98388248394912C38
:100740006501E89437F833FE2DC0522C81149104D2
:1007500071F5552009F468CFB70180E290E00E945E
:10076000F2045A94F6CFF801808189830E5F1F4FFF
:10077000E4CF2801F2E04F0E511CF801C080D18077
:10078000692D70E036FC02C06FEF7FEFC6010E945A
:10079000E7044C018201D5CFB70180E290E00E94CE
:1007A000F2042A942814190409F0B0F7CECFF60108
:1007B00037FC859137FE81916F01B70190E00E946F
:1007C000F20451105A94F1E08F1A9108BFCF843689
:1007D00019F0893609F077C0F80137FE6BC06081E7
:1007E0007181828193810C5F1F4FF32DFF763F2E25
:1007F00097FF09C090958095709561957F4F8F4FB9
:100800009F4F689437F82AE030E0A5010E94220546
:10081000C82ECA188C2C432C36FE0CC0E89440F825
:10082000C91440F434FE05C032FC03C0F32DFE7E33
:100830004F2E892C44FE95C0FE01EC0DF11D8081E8
:10084000803309F087C0242D297E422E842D8870A4
:10085000582E43FC95C040FE8FC09C2C821418F487
:100860002C0C922C981844FE91C0B70180E390E0C4
:100870000E94F20442FE09C088E790E041FE02C0F7
:1008800088E590E0B7010E94F204C91408F48AC018
:10089000CA94D12C9FEFC91AD90ACA0CDB1CF601E5
:1008A00082916F01B70190E00E94F204AC14BD0484
:1008B000B1F74FCF60817181072E000C880B990B27
:1008C0000E5F1F4F92CFD32CE894D4F82AE030E08B
:1008D000853739F1232D297FD22E8F3601F148F447
:1008E0008835A9F0F701868197812B96E2E10C9477
:1008F0009C05803749F08837A9F7D4FE02C0689478
:10090000D2F820E130E00DC06894D4F8F6CF34FE80
:1009100003C0822F8660D82E20E132E002C028E09A
:1009200030E0F801D7FE0FC0608171818281938130
:100930000C5F1F4FA5010E942205C82ECA183D2C2E
:10094000E89437F867CF6081718190E080E00E5FB6
:100950001F4FF0CF42FC02C0839478CF83948394DE
:1009600075CF842D867809F471CFF6CFB70180E278
:1009700090E00E94F20483948214C0F3512C73CF50
:10098000522C5818821408F46ECFF8CF842D867834
:1009900009F47BCF8BE241FE80E247FC8DE2B70198
:1009A00090E071CFB70180E390E00E94F2049A9446
:1009B0006CCF8FEF9FEF99CFFC0105906150704095
:1009C0000110D8F7809590958E0F9F1F0895FC0118
:1009D0006150704001900110D8F7809590958E0F6E
:1009E0009F1F08950F931F93CF93DF93182F092F05
:1009F000EB018B8181FD09C01FEF0FEF812F902F3D
:100A0000DF91CF911F910F91089582FF14C02E8125
:100A10003F818C819D81281739073CF4E881F98159
:100A2000CF0101969983888310838E819F810196DF
:100A30009F838E83E3CFE885F985812F0995892BE4
:100A4000A1F3DACFFA01AA27283051F1203181F140
:100A5000E8946F936E7F6E5F7F4F8F4F9F4FAF4FC6
:100A6000B1E03ED0B4E03CD0670F781F891F9A1FD9
:100A7000A11D680F791F8A1F911DA11D6A0F711D8D
:100A8000811D911DA11D20D009F468943F912AE099
:100A9000269F11243019305D3193DEF6CF01089581
:100AA000462F4770405D4193B3E00FD0C9F7F6CFB2
:100AB000462F4F70405D4A3318F0495D31FD40527A
:100AC000419302D0A9F7EACFB4E0A6959795879510
:100AD00077956795BA95C9F70097610571050895EF
:100AE0009B01AC010A2E069457954795379527959B
:100AF000BA95C9F7620F731F841F951FA01D089533
:100B00002F923F924F925F926F927F928F929F921D
:100B1000AF92BF92CF92DF92EF92FF920F931F930B
:100B2000CF93DF93CDB7DEB7CA1BDB0B0FB6F894BC
:100B3000DEBF0FBECDBF09942A88398848885F84FC
:100B40006E847D848C849B84AA84B984C884DF806D
:100B5000EE80FD800C811B81AA81B981CE0FD11D51
:100B60000FB6F894DEBF0FBECDBFED010895F89427
:020B7000FFCFB5
:100B720054656D706572617475726520413A00004A
:100B82000000000025642563430054656D70204118
:0A0B9200203C2054656D70204200E5
:00000001FF
