:100000000C942A000C9434000C9434000C943400AA
:100010000C9434000C9434000C9434000C94340090
:100020000C9434000C9434000C9434000C94340080
:100030000C9434000C9434000C9434000C94340070
:100040000C9434000C9434000C9434000C94340060
:100050000C94340011241FBECFE5D8E0DEBFCDBF25
:100060000E9436000C94B6000C94000080E487BB1C
:1000700083E48DB91EB88B9A789439E6E5E0F0E018
:10008000CAE0DFEF04E610E087EE820F8F31B8F4AC
:1000900088B318BA779BFECF2FB12833A4F0939A78
:1000A00087EA91E60197F1F700C0000082B312BA27
:1000B00087EA91E60197F1F700C00000E5CF13BE93
:1000C000243144F3E5CF24311CF4BA9AC29ADCCF30
:1000D00087EE820F8F3100F533BFBB9A822F022E3D
:1000E000000C990B4997BF010E948E00C69FA0018A
:1000F000C79F500D11244E5C5F4F4536510514F0DB
:1001000044E650E0D49FC001D59F900D1124B80162
:100110000E948E006CBFB8CF12BAB6CF97FB072EE5
:1001200016F4009407D077FD09D00E94A20007FCC6
:1001300005D03EF4909581959F4F089570956195F7
:100140007F4F0895AA1BBB1B51E107C0AA1FBB1F0D
:10015000A617B70710F0A61BB70B881F991F5A9553
:10016000A9F780959095BC01CD010895F894FFCF33
:00000001FF
